{
    "_format": "hh-sol-artifact-1",
    "contractName": "MyEpicNFT",
    "sourceName": "contracts/MyEpicNFT.sol",
    "abi": [
        {
            "inputs": [],
            "stateMutability": "nonpayable",
            "type": "constructor"
        },
        {
            "anonymous": false,
            "inputs": [
                {
                    "indexed": true,
                    "internalType": "address",
                    "name": "owner",
                    "type": "address"
                },
                {
                    "indexed": true,
                    "internalType": "address",
                    "name": "approved",
                    "type": "address"
                },
                {
                    "indexed": true,
                    "internalType": "uint256",
                    "name": "tokenId",
                    "type": "uint256"
                }
            ],
            "name": "Approval",
            "type": "event"
        },
        {
            "anonymous": false,
            "inputs": [
                {
                    "indexed": true,
                    "internalType": "address",
                    "name": "owner",
                    "type": "address"
                },
                {
                    "indexed": true,
                    "internalType": "address",
                    "name": "operator",
                    "type": "address"
                },
                {
                    "indexed": false,
                    "internalType": "bool",
                    "name": "approved",
                    "type": "bool"
                }
            ],
            "name": "ApprovalForAll",
            "type": "event"
        },
        {
            "anonymous": false,
            "inputs": [
                {
                    "indexed": false,
                    "internalType": "address",
                    "name": "sender",
                    "type": "address"
                },
                {
                    "indexed": false,
                    "internalType": "uint256",
                    "name": "tokenId",
                    "type": "uint256"
                }
            ],
            "name": "NewEpicNFTMinted",
            "type": "event"
        },
        {
            "anonymous": false,
            "inputs": [
                {
                    "indexed": true,
                    "internalType": "address",
                    "name": "from",
                    "type": "address"
                },
                {
                    "indexed": true,
                    "internalType": "address",
                    "name": "to",
                    "type": "address"
                },
                {
                    "indexed": true,
                    "internalType": "uint256",
                    "name": "tokenId",
                    "type": "uint256"
                }
            ],
            "name": "Transfer",
            "type": "event"
        },
        {
            "inputs": [
                {
                    "internalType": "address",
                    "name": "to",
                    "type": "address"
                },
                {
                    "internalType": "uint256",
                    "name": "tokenId",
                    "type": "uint256"
                }
            ],
            "name": "approve",
            "outputs": [],
            "stateMutability": "nonpayable",
            "type": "function"
        },
        {
            "inputs": [
                {
                    "internalType": "address",
                    "name": "owner",
                    "type": "address"
                }
            ],
            "name": "balanceOf",
            "outputs": [
                {
                    "internalType": "uint256",
                    "name": "",
                    "type": "uint256"
                }
            ],
            "stateMutability": "view",
            "type": "function"
        },
        {
            "inputs": [
                {
                    "internalType": "uint256",
                    "name": "tokenId",
                    "type": "uint256"
                }
            ],
            "name": "getApproved",
            "outputs": [
                {
                    "internalType": "address",
                    "name": "",
                    "type": "address"
                }
            ],
            "stateMutability": "view",
            "type": "function"
        },
        {
            "inputs": [],
            "name": "getTotalTokens",
            "outputs": [
                {
                    "internalType": "uint256",
                    "name": "",
                    "type": "uint256"
                }
            ],
            "stateMutability": "view",
            "type": "function"
        },
        {
            "inputs": [
                {
                    "internalType": "address",
                    "name": "owner",
                    "type": "address"
                },
                {
                    "internalType": "address",
                    "name": "operator",
                    "type": "address"
                }
            ],
            "name": "isApprovedForAll",
            "outputs": [
                {
                    "internalType": "bool",
                    "name": "",
                    "type": "bool"
                }
            ],
            "stateMutability": "view",
            "type": "function"
        },
        {
            "inputs": [],
            "name": "makeAnEpicNFT",
            "outputs": [],
            "stateMutability": "nonpayable",
            "type": "function"
        },
        {
            "inputs": [],
            "name": "name",
            "outputs": [
                {
                    "internalType": "string",
                    "name": "",
                    "type": "string"
                }
            ],
            "stateMutability": "view",
            "type": "function"
        },
        {
            "inputs": [
                {
                    "internalType": "uint256",
                    "name": "tokenId",
                    "type": "uint256"
                }
            ],
            "name": "ownerOf",
            "outputs": [
                {
                    "internalType": "address",
                    "name": "",
                    "type": "address"
                }
            ],
            "stateMutability": "view",
            "type": "function"
        },
        {
            "inputs": [
                {
                    "internalType": "uint256",
                    "name": "tokenId",
                    "type": "uint256"
                }
            ],
            "name": "pickRandomColor",
            "outputs": [
                {
                    "internalType": "string",
                    "name": "",
                    "type": "string"
                }
            ],
            "stateMutability": "view",
            "type": "function"
        },
        {
            "inputs": [
                {
                    "internalType": "uint256",
                    "name": "tokenId",
                    "type": "uint256"
                }
            ],
            "name": "pickRandomFirstWord",
            "outputs": [
                {
                    "internalType": "string",
                    "name": "",
                    "type": "string"
                }
            ],
            "stateMutability": "view",
            "type": "function"
        },
        {
            "inputs": [
                {
                    "internalType": "uint256",
                    "name": "tokenId",
                    "type": "uint256"
                }
            ],
            "name": "pickRandomSecondWord",
            "outputs": [
                {
                    "internalType": "string",
                    "name": "",
                    "type": "string"
                }
            ],
            "stateMutability": "view",
            "type": "function"
        },
        {
            "inputs": [
                {
                    "internalType": "uint256",
                    "name": "tokenId",
                    "type": "uint256"
                }
            ],
            "name": "pickRandomThirdWord",
            "outputs": [
                {
                    "internalType": "string",
                    "name": "",
                    "type": "string"
                }
            ],
            "stateMutability": "view",
            "type": "function"
        },
        {
            "inputs": [
                {
                    "internalType": "address",
                    "name": "from",
                    "type": "address"
                },
                {
                    "internalType": "address",
                    "name": "to",
                    "type": "address"
                },
                {
                    "internalType": "uint256",
                    "name": "tokenId",
                    "type": "uint256"
                }
            ],
            "name": "safeTransferFrom",
            "outputs": [],
            "stateMutability": "nonpayable",
            "type": "function"
        },
        {
            "inputs": [
                {
                    "internalType": "address",
                    "name": "from",
                    "type": "address"
                },
                {
                    "internalType": "address",
                    "name": "to",
                    "type": "address"
                },
                {
                    "internalType": "uint256",
                    "name": "tokenId",
                    "type": "uint256"
                },
                {
                    "internalType": "bytes",
                    "name": "_data",
                    "type": "bytes"
                }
            ],
            "name": "safeTransferFrom",
            "outputs": [],
            "stateMutability": "nonpayable",
            "type": "function"
        },
        {
            "inputs": [
                {
                    "internalType": "address",
                    "name": "operator",
                    "type": "address"
                },
                {
                    "internalType": "bool",
                    "name": "approved",
                    "type": "bool"
                }
            ],
            "name": "setApprovalForAll",
            "outputs": [],
            "stateMutability": "nonpayable",
            "type": "function"
        },
        {
            "inputs": [
                {
                    "internalType": "bytes4",
                    "name": "interfaceId",
                    "type": "bytes4"
                }
            ],
            "name": "supportsInterface",
            "outputs": [
                {
                    "internalType": "bool",
                    "name": "",
                    "type": "bool"
                }
            ],
            "stateMutability": "view",
            "type": "function"
        },
        {
            "inputs": [],
            "name": "symbol",
            "outputs": [
                {
                    "internalType": "string",
                    "name": "",
                    "type": "string"
                }
            ],
            "stateMutability": "view",
            "type": "function"
        },
        {
            "inputs": [
                {
                    "internalType": "uint256",
                    "name": "tokenId",
                    "type": "uint256"
                }
            ],
            "name": "tokenURI",
            "outputs": [
                {
                    "internalType": "string",
                    "name": "",
                    "type": "string"
                }
            ],
            "stateMutability": "view",
            "type": "function"
        },
        {
            "inputs": [
                {
                    "internalType": "address",
                    "name": "from",
                    "type": "address"
                },
                {
                    "internalType": "address",
                    "name": "to",
                    "type": "address"
                },
                {
                    "internalType": "uint256",
                    "name": "tokenId",
                    "type": "uint256"
                }
            ],
            "name": "transferFrom",
            "outputs": [],
            "stateMutability": "nonpayable",
            "type": "function"
        }
    ],
    "bytecode": "0x608060405260405180610100016040528060d3815260200162004e3f60d39139600890805190602001906200003692919062000df2565b5060405180608001604052806056815260200162004f1260569139600990805190602001906200006892919062000df2565b50604051806101e001604052806040518060400160405280600481526020017f457069630000000000000000000000000000000000000000000000000000000081525081526020016040518060400160405280600881526020017f436861726d696e6700000000000000000000000000000000000000000000000081525081526020016040518060400160405280600581526020017f437275656c00000000000000000000000000000000000000000000000000000081525081526020016040518060400160405280600681526020017f47656e746c65000000000000000000000000000000000000000000000000000081525081526020016040518060400160405280600481526020017f536578790000000000000000000000000000000000000000000000000000000081525081526020016040518060400160405280600481526020017f487567650000000000000000000000000000000000000000000000000000000081525081526020016040518060400160405280600781526020017f506572666563740000000000000000000000000000000000000000000000000081525081526020016040518060400160405280600981526020017f44656c6963696f7573000000000000000000000000000000000000000000000081525081526020016040518060400160405280600681526020017f53706f6f6b79000000000000000000000000000000000000000000000000000081525081526020016040518060400160405280600481526020017f437574650000000000000000000000000000000000000000000000000000000081525081526020016040518060400160405280600581526020017f546173747900000000000000000000000000000000000000000000000000000081525081526020016040518060400160405280600581526020017f53696c6c7900000000000000000000000000000000000000000000000000000081525081526020016040518060400160405280600481526020017f4c616d650000000000000000000000000000000000000000000000000000000081525081526020016040518060400160405280600881526020017f416e6e6f79696e6700000000000000000000000000000000000000000000000081525081526020016040518060400160405280600881526020017f5465727269626c65000000000000000000000000000000000000000000000000815250815250600a90600f620003fa92919062000e83565b50604051806101e001604052806040518060400160405280600a81526020017f57617465726d656c6f6e0000000000000000000000000000000000000000000081525081526020016040518060400160405280600681526020017f436865727279000000000000000000000000000000000000000000000000000081525081526020016040518060400160405280600c81526020017f437573746172646170706c65000000000000000000000000000000000000000081525081526020016040518060400160405280600581526020017f477261706500000000000000000000000000000000000000000000000000000081525081526020016040518060400160405280600581526020017f4d616e676f00000000000000000000000000000000000000000000000000000081525081526020016040518060400160405280600681526020017f4f72616e6765000000000000000000000000000000000000000000000000000081525081526020016040518060400160405280600681526020017f42616e616e61000000000000000000000000000000000000000000000000000081525081526020016040518060400160405280600a81526020017f537472617762657272790000000000000000000000000000000000000000000081525081526020016040518060400160405280600481526020017f506561720000000000000000000000000000000000000000000000000000000081525081526020016040518060400160405280600981526020017f4d75736b6d656c6f6e000000000000000000000000000000000000000000000081525081526020016040518060400160405280600681526020017f506170617961000000000000000000000000000000000000000000000000000081525081526020016040518060400160405280600581526020017f4170706c6500000000000000000000000000000000000000000000000000000081525081526020016040518060400160405280600481526020017f4b6977690000000000000000000000000000000000000000000000000000000081525081526020016040518060400160405280600981526020017f426c75656265727279000000000000000000000000000000000000000000000081525081526020016040518060400160405280600381526020017f4669670000000000000000000000000000000000000000000000000000000000815250815250600b90600f6200078c92919062000e83565b50604051806101a001604052806040518060400160405280600a81526020017f436f6c6c656374696f6e0000000000000000000000000000000000000000000081525081526020016040518060400160405280600c81526020017f41706f6c6f63616c79707365000000000000000000000000000000000000000081525081526020016040518060400160405280600881526020017f446973617374657200000000000000000000000000000000000000000000000081525081526020016040518060400160405280600681526020017f41747461636b000000000000000000000000000000000000000000000000000081525081526020016040518060400160405280600481526020017f476966740000000000000000000000000000000000000000000000000000000081525081526020016040518060400160405280600881526020017f537572707269736500000000000000000000000000000000000000000000000081525081526020016040518060400160405280600781526020017f446973706c61790000000000000000000000000000000000000000000000000081525081526020016040518060400160405280600681526020017f4272756e6368000000000000000000000000000000000000000000000000000081525081526020016040518060400160405280600481526020017f53686f770000000000000000000000000000000000000000000000000000000081525081526020016040518060400160405280600581526020017f576173746500000000000000000000000000000000000000000000000000000081525081526020016040518060400160405280600981526020017f536974756174696f6e000000000000000000000000000000000000000000000081525081526020016040518060400160405280600381526020017f576179000000000000000000000000000000000000000000000000000000000081525081526020016040518060400160405280600581526020017f436861696e000000000000000000000000000000000000000000000000000000815250815250600c90600d62000aa892919062000eea565b506040518060c001604052806040518060400160405280600381526020017f726564000000000000000000000000000000000000000000000000000000000081525081526020016040518060400160405280600781526020017f233038433241380000000000000000000000000000000000000000000000000081525081526020016040518060400160405280600581526020017f626c61636b00000000000000000000000000000000000000000000000000000081525081526020016040518060400160405280600681526020017f79656c6c6f77000000000000000000000000000000000000000000000000000081525081526020016040518060400160405280600481526020017f626c75650000000000000000000000000000000000000000000000000000000081525081526020016040518060400160405280600581526020017f677265656e000000000000000000000000000000000000000000000000000000815250815250600d90600662000c2692919062000f51565b5034801562000c3457600080fd5b506040518060400160405280600c81526020017f52616e646f6d53717561726500000000000000000000000000000000000000008152506040518060400160405280600681526020017f46554e4e46540000000000000000000000000000000000000000000000000000815250816000908051906020019062000cb992919062000df2565b50806001908051906020019062000cd292919062000df2565b50505062000d206040518060400160405280601c81526020017f54686973206973206d79204e465420636f6e74726163742e204c4f4c0000000081525062000d2660201b620012831760201c565b62001172565b62000dc68160405160240162000d3d919062001086565b6040516020818303038152906040527f41304fac000000000000000000000000000000000000000000000000000000007bffffffffffffffffffffffffffffffffffffffffffffffffffffffff19166020820180517bffffffffffffffffffffffffffffffffffffffffffffffffffffffff838183161783525050505062000dc960201b60201c565b50565b60008151905060006a636f6e736f6c652e6c6f679050602083016000808483855afa5050505050565b82805462000e0090620010fc565b90600052602060002090601f01602090048101928262000e24576000855562000e70565b82601f1062000e3f57805160ff191683800117855562000e70565b8280016001018555821562000e70579182015b8281111562000e6f57825182559160200191906001019062000e52565b5b50905062000e7f919062000fb8565b5090565b82805482825590600052602060002090810192821562000ed7579160200282015b8281111562000ed657825182908051906020019062000ec592919062000df2565b509160200191906001019062000ea4565b5b50905062000ee6919062000fd7565b5090565b82805482825590600052602060002090810192821562000f3e579160200282015b8281111562000f3d57825182908051906020019062000f2c92919062000df2565b509160200191906001019062000f0b565b5b50905062000f4d919062000fd7565b5090565b82805482825590600052602060002090810192821562000fa5579160200282015b8281111562000fa457825182908051906020019062000f9392919062000df2565b509160200191906001019062000f72565b5b50905062000fb4919062000fd7565b5090565b5b8082111562000fd357600081600090555060010162000fb9565b5090565b5b8082111562000ffb576000818162000ff1919062000fff565b5060010162000fd8565b5090565b5080546200100d90620010fc565b6000825580601f1062001021575062001042565b601f01602090049060005260206000209081019062001041919062000fb8565b5b50565b60006200105282620010aa565b6200105e8185620010b5565b935062001070818560208601620010c6565b6200107b8162001161565b840191505092915050565b60006020820190508181036000830152620010a2818462001045565b905092915050565b600081519050919050565b600082825260208201905092915050565b60005b83811015620010e6578082015181840152602081019050620010c9565b83811115620010f6576000848401525b50505050565b600060028204905060018216806200111557607f821691505b602082108114156200112c576200112b62001132565b5b50919050565b7f4e487b7100000000000000000000000000000000000000000000000000000000600052602260045260246000fd5b6000601f19601f8301169050919050565b613cbd80620011826000396000f3fe608060405234801561001057600080fd5b50600436106101215760003560e01c806370a08231116100ad578063c575757a11610071578063c575757a1461033e578063c87b56dd1461036e578063de9d132f1461039e578063e985e9c5146103a8578063f08b82e6146103d857610121565b806370a082311461028857806395d89b41146102b8578063a22cb465146102d6578063b187301f146102f2578063b88d4fde1461032257610121565b806323b872dd116100f457806323b872dd146101c05780632de38d68146101dc57806342842e0e1461020c578063514dc8c6146102285780636352211e1461025857610121565b806301ffc9a71461012657806306fdde0314610156578063081812fc14610174578063095ea7b3146101a4575b600080fd5b610140600480360381019061013b91906126af565b6103f6565b60405161014d9190612e5d565b60405180910390f35b61015e6104d8565b60405161016b9190612e78565b60405180910390f35b61018e60048036038101906101899190612701565b61056a565b60405161019b9190612dcd565b60405180910390f35b6101be60048036038101906101b99190612673565b6105ef565b005b6101da60048036038101906101d5919061256d565b610707565b005b6101f660048036038101906101f19190612701565b610767565b6040516102039190612e78565b60405180910390f35b6102266004803603810190610221919061256d565b610885565b005b610242600480360381019061023d9190612701565b6108a5565b60405161024f9190612e78565b60405180910390f35b610272600480360381019061026d9190612701565b6109c3565b60405161027f9190612dcd565b60405180910390f35b6102a2600480360381019061029d9190612508565b610a75565b6040516102af91906130d8565b60405180910390f35b6102c0610b2d565b6040516102cd9190612e78565b60405180910390f35b6102f060048036038101906102eb9190612637565b610bbf565b005b61030c60048036038101906103079190612701565b610bd5565b6040516103199190612e78565b60405180910390f35b61033c600480360381019061033791906125bc565b610cf3565b005b61035860048036038101906103539190612701565b610d55565b6040516103659190612e78565b60405180910390f35b61038860048036038101906103839190612701565b610e73565b6040516103959190612e78565b60405180910390f35b6103a6610fc5565b005b6103c260048036038101906103bd9190612531565b6111de565b6040516103cf9190612e5d565b60405180910390f35b6103e0611272565b6040516103ed91906130d8565b60405180910390f35b60007f80ac58cd000000000000000000000000000000000000000000000000000000007bffffffffffffffffffffffffffffffffffffffffffffffffffffffff1916827bffffffffffffffffffffffffffffffffffffffffffffffffffffffff191614806104c157507f5b5e139f000000000000000000000000000000000000000000000000000000007bffffffffffffffffffffffffffffffffffffffffffffffffffffffff1916827bffffffffffffffffffffffffffffffffffffffffffffffffffffffff1916145b806104d157506104d08261131c565b5b9050919050565b6060600080546104e79061336c565b80601f01602080910402602001604051908101604052809291908181526020018280546105139061336c565b80156105605780601f1061053557610100808354040283529160200191610560565b820191906000526020600020905b81548152906001019060200180831161054357829003601f168201915b5050505050905090565b600061057582611386565b6105b4576040517f08c379a00000000000000000000000000000000000000000000000000000000081526004016105ab90613058565b60405180910390fd5b6004600083815260200190815260200160002060009054906101000a900473ffffffffffffffffffffffffffffffffffffffff169050919050565b60006105fa826109c3565b90508073ffffffffffffffffffffffffffffffffffffffff168373ffffffffffffffffffffffffffffffffffffffff16141561066b576040517f08c379a000000000000000000000000000000000000000000000000000000000815260040161066290613098565b60405180910390fd5b8073ffffffffffffffffffffffffffffffffffffffff1661068a6113f2565b73ffffffffffffffffffffffffffffffffffffffff1614806106b957506106b8816106b36113f2565b6111de565b5b6106f8576040517f08c379a00000000000000000000000000000000000000000000000000000000081526004016106ef90612f98565b60405180910390fd5b61070283836113fa565b505050565b6107186107126113f2565b826114b3565b610757576040517f08c379a000000000000000000000000000000000000000000000000000000000815260040161074e906130b8565b60405180910390fd5b610762838383611591565b505050565b6060600061079b610777846117f8565b6040516020016107879190612d67565b6040516020818303038152906040526119a5565b9050600a80549050816107ae9190613418565b9050600a81815481106107ea577f4e487b7100000000000000000000000000000000000000000000000000000000600052603260045260246000fd5b9060005260206000200180546107ff9061336c565b80601f016020809104026020016040519081016040528092919081815260200182805461082b9061336c565b80156108785780601f1061084d57610100808354040283529160200191610878565b820191906000526020600020905b81548152906001019060200180831161085b57829003601f168201915b5050505050915050919050565b6108a083838360405180602001604052806000815250610cf3565b505050565b606060006108d96108b5846117f8565b6040516020016108c59190612dab565b6040516020818303038152906040526119a5565b9050600d80549050816108ec9190613418565b9050600d8181548110610928577f4e487b7100000000000000000000000000000000000000000000000000000000600052603260045260246000fd5b90600052602060002001805461093d9061336c565b80601f01602080910402602001604051908101604052809291908181526020018280546109699061336c565b80156109b65780601f1061098b576101008083540402835291602001916109b6565b820191906000526020600020905b81548152906001019060200180831161099957829003601f168201915b5050505050915050919050565b6000806002600084815260200190815260200160002060009054906101000a900473ffffffffffffffffffffffffffffffffffffffff169050600073ffffffffffffffffffffffffffffffffffffffff168173ffffffffffffffffffffffffffffffffffffffff161415610a6c576040517f08c379a0000000000000000000000000000000000000000000000000000000008152600401610a6390612fd8565b60405180910390fd5b80915050919050565b60008073ffffffffffffffffffffffffffffffffffffffff168273ffffffffffffffffffffffffffffffffffffffff161415610ae6576040517f08c379a0000000000000000000000000000000000000000000000000000000008152600401610add90612fb8565b60405180910390fd5b600360008373ffffffffffffffffffffffffffffffffffffffff1673ffffffffffffffffffffffffffffffffffffffff168152602001908152602001600020549050919050565b606060018054610b3c9061336c565b80601f0160208091040260200160405190810160405280929190818152602001828054610b689061336c565b8015610bb55780601f10610b8a57610100808354040283529160200191610bb5565b820191906000526020600020905b815481529060010190602001808311610b9857829003601f168201915b5050505050905090565b610bd1610bca6113f2565b83836119d8565b5050565b60606000610c09610be5846117f8565b604051602001610bf59190612d00565b6040516020818303038152906040526119a5565b9050600b8054905081610c1c9190613418565b9050600b8181548110610c58577f4e487b7100000000000000000000000000000000000000000000000000000000600052603260045260246000fd5b906000526020600020018054610c6d9061336c565b80601f0160208091040260200160405190810160405280929190818152602001828054610c999061336c565b8015610ce65780601f10610cbb57610100808354040283529160200191610ce6565b820191906000526020600020905b815481529060010190602001808311610cc957829003601f168201915b5050505050915050919050565b610d04610cfe6113f2565b836114b3565b610d43576040517f08c379a0000000000000000000000000000000000000000000000000000000008152600401610d3a906130b8565b60405180910390fd5b610d4f84848484611b45565b50505050565b60606000610d89610d65846117f8565b604051602001610d759190612cde565b6040516020818303038152906040526119a5565b9050600c8054905081610d9c9190613418565b9050600c8181548110610dd8577f4e487b7100000000000000000000000000000000000000000000000000000000600052603260045260246000fd5b906000526020600020018054610ded9061336c565b80601f0160208091040260200160405190810160405280929190818152602001828054610e199061336c565b8015610e665780601f10610e3b57610100808354040283529160200191610e66565b820191906000526020600020905b815481529060010190602001808311610e4957829003601f168201915b5050505050915050919050565b6060610e7e82611386565b610ebd576040517f08c379a0000000000000000000000000000000000000000000000000000000008152600401610eb490613038565b60405180910390fd5b6000600660008481526020019081526020016000208054610edd9061336c565b80601f0160208091040260200160405190810160405280929190818152602001828054610f099061336c565b8015610f565780601f10610f2b57610100808354040283529160200191610f56565b820191906000526020600020905b815481529060010190602001808311610f3957829003601f168201915b505050505090506000610f67611ba1565b9050600081511415610f7d578192505050610fc0565b600082511115610fb2578082604051602001610f9a929190612c1e565b60405160208183030381529060405292505050610fc0565b610fbb84611bb8565b925050505b919050565b6000610fd16007611c5f565b90506000610fde82610767565b90506000610feb83610bd5565b90506000610ff884610d55565b9050600083838360405160200161101193929190612c42565b6040516020818303038152906040529050600061102d866108a5565b9050600060088260098560405160200161104a9493929190612c73565b6040516020818303038152906040529050600061108f8461106a84611c6d565b60405160200161107b929190612d22565b604051602081830303815290604052611c6d565b90506000816040516020016110a49190612d89565b60405160208183030381529060405290506110f36040518060400160405280601581526020017f0a2d2d2d2d2d2d2d2d2d2d2d2d2d2d2d2d2d2d2d2d0000000000000000000000815250611283565b61111b816040516020016111079190612cbc565b604051602081830303815290604052611283565b6111596040518060400160405280601581526020017f2d2d2d2d2d2d2d2d2d2d2d2d2d2d2d2d2d2d2d2d0a0000000000000000000000815250611283565b611163338a611e2b565b61116d8982611e49565b611190604051806060016040528060258152602001613c23602591398a33611ebd565b61119a6007611f5c565b7febb98688741ffa4c7589bf325de30cf7becb63de567842e1ccdb6cb949fdc82c338a6040516111cb929190612e34565b60405180910390a1505050505050505050565b6000600560008473ffffffffffffffffffffffffffffffffffffffff1673ffffffffffffffffffffffffffffffffffffffff16815260200190815260200160002060008373ffffffffffffffffffffffffffffffffffffffff1673ffffffffffffffffffffffffffffffffffffffff16815260200190815260200160002060009054906101000a900460ff16905092915050565b600061127e6007611c5f565b905090565b611319816040516024016112979190612e78565b6040516020818303038152906040527f41304fac000000000000000000000000000000000000000000000000000000007bffffffffffffffffffffffffffffffffffffffffffffffffffffffff19166020820180517bffffffffffffffffffffffffffffffffffffffffffffffffffffffff8381831617835250505050611f72565b50565b60007f01ffc9a7000000000000000000000000000000000000000000000000000000007bffffffffffffffffffffffffffffffffffffffffffffffffffffffff1916827bffffffffffffffffffffffffffffffffffffffffffffffffffffffff1916149050919050565b60008073ffffffffffffffffffffffffffffffffffffffff166002600084815260200190815260200160002060009054906101000a900473ffffffffffffffffffffffffffffffffffffffff1673ffffffffffffffffffffffffffffffffffffffff1614159050919050565b600033905090565b816004600083815260200190815260200160002060006101000a81548173ffffffffffffffffffffffffffffffffffffffff021916908373ffffffffffffffffffffffffffffffffffffffff160217905550808273ffffffffffffffffffffffffffffffffffffffff1661146d836109c3565b73ffffffffffffffffffffffffffffffffffffffff167f8c5be1e5ebec7d5bd14f71427d1e84f3dd0314c0f7b2291e5b200ac8c7c3b92560405160405180910390a45050565b60006114be82611386565b6114fd576040517f08c379a00000000000000000000000000000000000000000000000000000000081526004016114f490612f78565b60405180910390fd5b6000611508836109c3565b90508073ffffffffffffffffffffffffffffffffffffffff168473ffffffffffffffffffffffffffffffffffffffff16148061157757508373ffffffffffffffffffffffffffffffffffffffff1661155f8461056a565b73ffffffffffffffffffffffffffffffffffffffff16145b80611588575061158781856111de565b5b91505092915050565b8273ffffffffffffffffffffffffffffffffffffffff166115b1826109c3565b73ffffffffffffffffffffffffffffffffffffffff1614611607576040517f08c379a00000000000000000000000000000000000000000000000000000000081526004016115fe90612ef8565b60405180910390fd5b600073ffffffffffffffffffffffffffffffffffffffff168273ffffffffffffffffffffffffffffffffffffffff161415611677576040517f08c379a000000000000000000000000000000000000000000000000000000000815260040161166e90612f38565b60405180910390fd5b611682838383611f9b565b61168d6000826113fa565b6001600360008573ffffffffffffffffffffffffffffffffffffffff1673ffffffffffffffffffffffffffffffffffffffff16815260200190815260200160002060008282546116dd9190613282565b925050819055506001600360008473ffffffffffffffffffffffffffffffffffffffff1673ffffffffffffffffffffffffffffffffffffffff168152602001908152602001600020600082825461173491906131a1565b92505081905550816002600083815260200190815260200160002060006101000a81548173ffffffffffffffffffffffffffffffffffffffff021916908373ffffffffffffffffffffffffffffffffffffffff160217905550808273ffffffffffffffffffffffffffffffffffffffff168473ffffffffffffffffffffffffffffffffffffffff167fddf252ad1be2c89b69c2b068fc378daa952ba7f163c4a11628f55a4df523b3ef60405160405180910390a46117f3838383611fa0565b505050565b60606000821415611840576040518060400160405280600181526020017f300000000000000000000000000000000000000000000000000000000000000081525090506119a0565b600082905060005b6000821461187257808061185b906133cf565b915050600a8261186b91906131f7565b9150611848565b60008167ffffffffffffffff8111156118b4577f4e487b7100000000000000000000000000000000000000000000000000000000600052604160045260246000fd5b6040519080825280601f01601f1916602001820160405280156118e65781602001600182028036833780820191505090505b5090505b60008514611999576001826118ff9190613282565b9150600a8561190e9190613418565b603061191a91906131a1565b60f81b818381518110611956577f4e487b7100000000000000000000000000000000000000000000000000000000600052603260045260246000fd5b60200101907effffffffffffffffffffffffffffffffffffffffffffffffffffffffffffff1916908160001a905350600a8561199291906131f7565b94506118ea565b8093505050505b919050565b6000816040516020016119b89190612c07565b6040516020818303038152906040528051906020012060001c9050919050565b8173ffffffffffffffffffffffffffffffffffffffff168373ffffffffffffffffffffffffffffffffffffffff161415611a47576040517f08c379a0000000000000000000000000000000000000000000000000000000008152600401611a3e90612f58565b60405180910390fd5b80600560008573ffffffffffffffffffffffffffffffffffffffff1673ffffffffffffffffffffffffffffffffffffffff16815260200190815260200160002060008473ffffffffffffffffffffffffffffffffffffffff1673ffffffffffffffffffffffffffffffffffffffff16815260200190815260200160002060006101000a81548160ff0219169083151502179055508173ffffffffffffffffffffffffffffffffffffffff168373ffffffffffffffffffffffffffffffffffffffff167f17307eab39ab6107e8899845ad3d59bd9653f200f220920489ca2b5937696c3183604051611b389190612e5d565b60405180910390a3505050565b611b50848484611591565b611b5c84848484611fa5565b611b9b576040517f08c379a0000000000000000000000000000000000000000000000000000000008152600401611b9290612ed8565b60405180910390fd5b50505050565b606060405180602001604052806000815250905090565b6060611bc382611386565b611c02576040517f08c379a0000000000000000000000000000000000000000000000000000000008152600401611bf990613078565b60405180910390fd5b6000611c0c611ba1565b90506000815111611c2c5760405180602001604052806000815250611c57565b80611c36846117f8565b604051602001611c47929190612c1e565b6040516020818303038152906040525b915050919050565b600081600001549050919050565b60606000825190506000811415611c965760405180602001604052806000815250915050611e26565b60006003600283611ca791906131a1565b611cb191906131f7565b6004611cbd9190613228565b90506000602082611cce91906131a1565b67ffffffffffffffff811115611d0d577f4e487b7100000000000000000000000000000000000000000000000000000000600052604160045260246000fd5b6040519080825280601f01601f191660200182016040528015611d3f5781602001600182028036833780820191505090505b5090506000604051806060016040528060408152602001613c48604091399050600181016020830160005b86811015611de35760038101905062ffffff818a015116603f8160121c168401518060081b905060ff603f83600c1c1686015116810190508060081b905060ff603f8360061c1686015116810190508060081b905060ff603f831686015116810190508060e01b90508084526004840193505050611d6a565b506003860660018114611dfd5760028114611e0d57611e18565b613d3d60f01b6002830352611e18565b603d60f81b60018303525b508484525050819450505050505b919050565b611e4582826040518060200160405280600081525061213c565b5050565b611e5282611386565b611e91576040517f08c379a0000000000000000000000000000000000000000000000000000000008152600401611e8890612ff8565b60405180910390fd5b80600660008481526020019081526020016000209080519060200190611eb8929190612394565b505050565b611f57838383604051602401611ed593929190612e9a565b6040516020818303038152906040527fe3849f79000000000000000000000000000000000000000000000000000000007bffffffffffffffffffffffffffffffffffffffffffffffffffffffff19166020820180517bffffffffffffffffffffffffffffffffffffffffffffffffffffffff8381831617835250505050611f72565b505050565b6001816000016000828254019250508190555050565b60008151905060006a636f6e736f6c652e6c6f679050602083016000808483855afa5050505050565b505050565b505050565b6000611fc68473ffffffffffffffffffffffffffffffffffffffff16612197565b1561212f578373ffffffffffffffffffffffffffffffffffffffff1663150b7a02611fef6113f2565b8786866040518563ffffffff1660e01b81526004016120119493929190612de8565b602060405180830381600087803b15801561202b57600080fd5b505af192505050801561205c57506040513d601f19601f8201168201806040525081019061205991906126d8565b60015b6120df573d806000811461208c576040519150601f19603f3d011682016040523d82523d6000602084013e612091565b606091505b506000815114156120d7576040517f08c379a00000000000000000000000000000000000000000000000000000000081526004016120ce90612ed8565b60405180910390fd5b805181602001fd5b63150b7a0260e01b7bffffffffffffffffffffffffffffffffffffffffffffffffffffffff1916817bffffffffffffffffffffffffffffffffffffffffffffffffffffffff191614915050612134565b600190505b949350505050565b61214683836121ba565b6121536000848484611fa5565b612192576040517f08c379a000000000000000000000000000000000000000000000000000000000815260040161218990612ed8565b60405180910390fd5b505050565b6000808273ffffffffffffffffffffffffffffffffffffffff163b119050919050565b600073ffffffffffffffffffffffffffffffffffffffff168273ffffffffffffffffffffffffffffffffffffffff16141561222a576040517f08c379a000000000000000000000000000000000000000000000000000000000815260040161222190613018565b60405180910390fd5b61223381611386565b15612273576040517f08c379a000000000000000000000000000000000000000000000000000000000815260040161226a90612f18565b60405180910390fd5b61227f60008383611f9b565b6001600360008473ffffffffffffffffffffffffffffffffffffffff1673ffffffffffffffffffffffffffffffffffffffff16815260200190815260200160002060008282546122cf91906131a1565b92505081905550816002600083815260200190815260200160002060006101000a81548173ffffffffffffffffffffffffffffffffffffffff021916908373ffffffffffffffffffffffffffffffffffffffff160217905550808273ffffffffffffffffffffffffffffffffffffffff16600073ffffffffffffffffffffffffffffffffffffffff167fddf252ad1be2c89b69c2b068fc378daa952ba7f163c4a11628f55a4df523b3ef60405160405180910390a461239060008383611fa0565b5050565b8280546123a09061336c565b90600052602060002090601f0160209004810192826123c25760008555612409565b82601f106123db57805160ff1916838001178555612409565b82800160010185558215612409579182015b828111156124085782518255916020019190600101906123ed565b5b509050612416919061241a565b5090565b5b8082111561243357600081600090555060010161241b565b5090565b600061244a61244584613118565b6130f3565b90508281526020810184848401111561246257600080fd5b61246d84828561332a565b509392505050565b60008135905061248481613bc6565b92915050565b60008135905061249981613bdd565b92915050565b6000813590506124ae81613bf4565b92915050565b6000815190506124c381613bf4565b92915050565b600082601f8301126124da57600080fd5b81356124ea848260208601612437565b91505092915050565b60008135905061250281613c0b565b92915050565b60006020828403121561251a57600080fd5b600061252884828501612475565b91505092915050565b6000806040838503121561254457600080fd5b600061255285828601612475565b925050602061256385828601612475565b9150509250929050565b60008060006060848603121561258257600080fd5b600061259086828701612475565b93505060206125a186828701612475565b92505060406125b2868287016124f3565b9150509250925092565b600080600080608085870312156125d257600080fd5b60006125e087828801612475565b94505060206125f187828801612475565b9350506040612602878288016124f3565b925050606085013567ffffffffffffffff81111561261f57600080fd5b61262b878288016124c9565b91505092959194509250565b6000806040838503121561264a57600080fd5b600061265885828601612475565b92505060206126698582860161248a565b9150509250929050565b6000806040838503121561268657600080fd5b600061269485828601612475565b92505060206126a5858286016124f3565b9150509250929050565b6000602082840312156126c157600080fd5b60006126cf8482850161249f565b91505092915050565b6000602082840312156126ea57600080fd5b60006126f8848285016124b4565b91505092915050565b60006020828403121561271357600080fd5b6000612721848285016124f3565b91505092915050565b612733816132b6565b82525050565b612742816132c8565b82525050565b60006127538261315e565b61275d8185613174565b935061276d818560208601613339565b61277681613505565b840191505092915050565b600061278c82613169565b6127968185613185565b93506127a6818560208601613339565b6127af81613505565b840191505092915050565b60006127c582613169565b6127cf8185613196565b93506127df818560208601613339565b80840191505092915050565b600081546127f88161336c565b6128028186613196565b9450600182166000811461281d576001811461282e57612861565b60ff19831686528186019350612861565b61283785613149565b60005b838110156128595781548189015260018201915060208101905061283a565b838801955050505b50505092915050565b6000612877602583613196565b915061288282613516565b602582019050919050565b600061289a603283613185565b91506128a582613565565b604082019050919050565b60006128bd602583613185565b91506128c8826135b4565b604082019050919050565b60006128e0601c83613185565b91506128eb82613603565b602082019050919050565b6000612903600a83613196565b915061290e8261362c565b600a82019050919050565b6000612926602483613185565b915061293182613655565b604082019050919050565b6000612949601983613185565b9150612954826136a4565b602082019050919050565b600061296c606383613196565b9150612977826136cd565b606382019050919050565b600061298f600b83613196565b915061299a82613768565b600b82019050919050565b60006129b2602c83613185565b91506129bd82613791565b604082019050919050565b60006129d5600d83613196565b91506129e0826137e0565b600d82019050919050565b60006129f8603883613185565b9150612a0382613809565b604082019050919050565b6000612a1b602a83613185565b9150612a2682613858565b604082019050919050565b6000612a3e602983613185565b9150612a49826138a7565b604082019050919050565b6000612a61602e83613185565b9150612a6c826138f6565b604082019050919050565b6000612a84600283613196565b9150612a8f82613945565b600282019050919050565b6000612aa7602083613185565b9150612ab28261396e565b602082019050919050565b6000612aca603183613185565b9150612ad582613997565b604082019050919050565b6000612aed602c83613185565b9150612af8826139e6565b604082019050919050565b6000612b10602f83613185565b9150612b1b82613a35565b604082019050919050565b6000612b33600a83613196565b9150612b3e82613a84565b600a82019050919050565b6000612b56602183613185565b9150612b6182613aad565b604082019050919050565b6000612b79600a83613196565b9150612b8482613afc565b600a82019050919050565b6000612b9c601d83613196565b9150612ba782613b25565b601d82019050919050565b6000612bbf603183613185565b9150612bca82613b4e565b604082019050919050565b6000612be2600583613196565b9150612bed82613b9d565b600582019050919050565b612c0181613320565b82525050565b6000612c1382846127ba565b915081905092915050565b6000612c2a82856127ba565b9150612c3682846127ba565b91508190509392505050565b6000612c4e82866127ba565b9150612c5a82856127ba565b9150612c6682846127ba565b9150819050949350505050565b6000612c7f82876127eb565b9150612c8b82866127ba565b9150612c9782856127eb565b9150612ca382846127ba565b9150612cae826129c8565b915081905095945050505050565b6000612cc78261286a565b9150612cd382846127ba565b915081905092915050565b6000612ce9826128f6565b9150612cf582846127ba565b915081905092915050565b6000612d0b82612982565b9150612d1782846127ba565b915081905092915050565b6000612d2d82612b26565b9150612d3982856127ba565b9150612d448261295f565b9150612d5082846127ba565b9150612d5b82612a77565b91508190509392505050565b6000612d7282612b6c565b9150612d7e82846127ba565b915081905092915050565b6000612d9482612b8f565b9150612da082846127ba565b915081905092915050565b6000612db682612bd5565b9150612dc282846127ba565b915081905092915050565b6000602082019050612de2600083018461272a565b92915050565b6000608082019050612dfd600083018761272a565b612e0a602083018661272a565b612e176040830185612bf8565b8181036060830152612e298184612748565b905095945050505050565b6000604082019050612e49600083018561272a565b612e566020830184612bf8565b9392505050565b6000602082019050612e726000830184612739565b92915050565b60006020820190508181036000830152612e928184612781565b905092915050565b60006060820190508181036000830152612eb48186612781565b9050612ec36020830185612bf8565b612ed0604083018461272a565b949350505050565b60006020820190508181036000830152612ef18161288d565b9050919050565b60006020820190508181036000830152612f11816128b0565b9050919050565b60006020820190508181036000830152612f31816128d3565b9050919050565b60006020820190508181036000830152612f5181612919565b9050919050565b60006020820190508181036000830152612f718161293c565b9050919050565b60006020820190508181036000830152612f91816129a5565b9050919050565b60006020820190508181036000830152612fb1816129eb565b9050919050565b60006020820190508181036000830152612fd181612a0e565b9050919050565b60006020820190508181036000830152612ff181612a31565b9050919050565b6000602082019050818103600083015261301181612a54565b9050919050565b6000602082019050818103600083015261303181612a9a565b9050919050565b6000602082019050818103600083015261305181612abd565b9050919050565b6000602082019050818103600083015261307181612ae0565b9050919050565b6000602082019050818103600083015261309181612b03565b9050919050565b600060208201905081810360008301526130b181612b49565b9050919050565b600060208201905081810360008301526130d181612bb2565b9050919050565b60006020820190506130ed6000830184612bf8565b92915050565b60006130fd61310e565b9050613109828261339e565b919050565b6000604051905090565b600067ffffffffffffffff821115613133576131326134d6565b5b61313c82613505565b9050602081019050919050565b60008190508160005260206000209050919050565b600081519050919050565b600081519050919050565b600082825260208201905092915050565b600082825260208201905092915050565b600081905092915050565b60006131ac82613320565b91506131b783613320565b9250827fffffffffffffffffffffffffffffffffffffffffffffffffffffffffffffffff038211156131ec576131eb613449565b5b828201905092915050565b600061320282613320565b915061320d83613320565b92508261321d5761321c613478565b5b828204905092915050565b600061323382613320565b915061323e83613320565b9250817fffffffffffffffffffffffffffffffffffffffffffffffffffffffffffffffff048311821515161561327757613276613449565b5b828202905092915050565b600061328d82613320565b915061329883613320565b9250828210156132ab576132aa613449565b5b828203905092915050565b60006132c182613300565b9050919050565b60008115159050919050565b60007fffffffff0000000000000000000000000000000000000000000000000000000082169050919050565b600073ffffffffffffffffffffffffffffffffffffffff82169050919050565b6000819050919050565b82818337600083830152505050565b60005b8381101561335757808201518184015260208101905061333c565b83811115613366576000848401525b50505050565b6000600282049050600182168061338457607f821691505b60208210811415613398576133976134a7565b5b50919050565b6133a782613505565b810181811067ffffffffffffffff821117156133c6576133c56134d6565b5b80604052505050565b60006133da82613320565b91507fffffffffffffffffffffffffffffffffffffffffffffffffffffffffffffffff82141561340d5761340c613449565b5b600182019050919050565b600061342382613320565b915061342e83613320565b92508261343e5761343d613478565b5b828206905092915050565b7f4e487b7100000000000000000000000000000000000000000000000000000000600052601160045260246000fd5b7f4e487b7100000000000000000000000000000000000000000000000000000000600052601260045260246000fd5b7f4e487b7100000000000000000000000000000000000000000000000000000000600052602260045260246000fd5b7f4e487b7100000000000000000000000000000000000000000000000000000000600052604160045260246000fd5b6000601f19601f8301169050919050565b7f68747470733a2f2f6e6674707265766965772e30786465762e636f6465732f3f60008201527f636f64653d000000000000000000000000000000000000000000000000000000602082015250565b7f4552433732313a207472616e7366657220746f206e6f6e20455243373231526560008201527f63656976657220696d706c656d656e7465720000000000000000000000000000602082015250565b7f4552433732313a207472616e736665722066726f6d20696e636f72726563742060008201527f6f776e6572000000000000000000000000000000000000000000000000000000602082015250565b7f4552433732313a20746f6b656e20616c7265616479206d696e74656400000000600082015250565b7f54484952445f574f524400000000000000000000000000000000000000000000600082015250565b7f4552433732313a207472616e7366657220746f20746865207a65726f2061646460008201527f7265737300000000000000000000000000000000000000000000000000000000602082015250565b7f4552433732313a20617070726f766520746f2063616c6c657200000000000000600082015250565b7f222c20226465736372697074696f6e223a20224120686967686c79206163636c60008201527f61696d656420636f6c6c656374696f6e206f6620737175617265732e222c202260208201527f696d616765223a2022646174613a696d6167652f7376672b786d6c3b6261736560408201527f36342c0000000000000000000000000000000000000000000000000000000000606082015250565b7f5345434f4e445f574f5244000000000000000000000000000000000000000000600082015250565b7f4552433732313a206f70657261746f7220717565727920666f72206e6f6e657860008201527f697374656e7420746f6b656e0000000000000000000000000000000000000000602082015250565b7f3c2f746578743e3c2f7376673e00000000000000000000000000000000000000600082015250565b7f4552433732313a20617070726f76652063616c6c6572206973206e6f74206f7760008201527f6e6572206e6f7220617070726f76656420666f7220616c6c0000000000000000602082015250565b7f4552433732313a2062616c616e636520717565727920666f7220746865207a6560008201527f726f206164647265737300000000000000000000000000000000000000000000602082015250565b7f4552433732313a206f776e657220717565727920666f72206e6f6e657869737460008201527f656e7420746f6b656e0000000000000000000000000000000000000000000000602082015250565b7f45524337323155524953746f726167653a2055524920736574206f66206e6f6e60008201527f6578697374656e7420746f6b656e000000000000000000000000000000000000602082015250565b7f227d000000000000000000000000000000000000000000000000000000000000600082015250565b7f4552433732313a206d696e7420746f20746865207a65726f2061646472657373600082015250565b7f45524337323155524953746f726167653a2055524920717565727920666f722060008201527f6e6f6e6578697374656e7420746f6b656e000000000000000000000000000000602082015250565b7f4552433732313a20617070726f76656420717565727920666f72206e6f6e657860008201527f697374656e7420746f6b656e0000000000000000000000000000000000000000602082015250565b7f4552433732314d657461646174613a2055524920717565727920666f72206e6f60008201527f6e6578697374656e7420746f6b656e0000000000000000000000000000000000602082015250565b7f7b226e616d65223a202200000000000000000000000000000000000000000000600082015250565b7f4552433732313a20617070726f76616c20746f2063757272656e74206f776e6560008201527f7200000000000000000000000000000000000000000000000000000000000000602082015250565b7f46495253545f574f524400000000000000000000000000000000000000000000600082015250565b7f646174613a6170706c69636174696f6e2f6a736f6e3b6261736536342c000000600082015250565b7f4552433732313a207472616e736665722063616c6c6572206973206e6f74206f60008201527f776e6572206e6f7220617070726f766564000000000000000000000000000000602082015250565b7f434f4c4f52000000000000000000000000000000000000000000000000000000600082015250565b613bcf816132b6565b8114613bda57600080fd5b50565b613be6816132c8565b8114613bf157600080fd5b50565b613bfd816132d4565b8114613c0857600080fd5b50565b613c1481613320565b8114613c1f57600080fd5b5056fe416e204e465420772f20494420257320686173206265656e206d696e74656420746f2025734142434445464748494a4b4c4d4e4f505152535455565758595a6162636465666768696a6b6c6d6e6f707172737475767778797a303132333435363738392b2fa2646970667358221220ef9edfcd47873e5689d98a3303a0cca4e34df83cc562278ac1c57f13819916f364736f6c634300080100333c73766720786d6c6e733d27687474703a2f2f7777772e77332e6f72672f323030302f73766727207072657365727665417370656374526174696f3d27784d696e594d696e206d656574272076696577426f783d273020302033353020333530273e3c7374796c653e2e62617365207b2066696c6c3a2077686974653b20666f6e742d66616d696c793a2073657269663b20666f6e742d73697a653a20323470783b207d3c2f7374796c653e3c726563742077696474683d273130302527206865696768743d2731303025272066696c6c3d27272f3e3c7465787420783d273530252720793d273530252720636c6173733d27626173652720646f6d696e616e742d626173656c696e653d276d6964646c652720746578742d616e63686f723d276d6964646c65273e",
    "linkReferences": {},
    "deployedLinkReferences": {}
}